:0A0B8A000001020203030404050544
:1004B000E4F513F512F511F510C203C200C202C231
:1004C00001120B477E097F008E238F24752B09753F
:1004D0002C1275210975221C752909752A2E752D76
:1004E00009752E40EE54C070030205B175140075F5
:1004F00015808E168F17C3746A9FFF74099ECF24D0
:1005000002CF3400FEE48F0F8E0EF50DF50CF50BC7
:10051000F50AF509F508AF0FAE0EAD0DAC0CAB0B3F
:10052000AA0AA909A808C312076E5033E517250BBC
:10053000F582E516350AF583E0FFE515250BF58212
:10054000E514350AF583EFF0E50B2401F50BE435EE
:100550000AF50AE43509F509E43508F50880B78598
:10056000142385152474002480FF740934FFFEC30E
:10057000E52C9FF52CE52B9EF52BC3E5269FF52654
:10058000E5259EF525C3E5289FF528E5279EF52757
:10059000C3E5229FF522E5219EF521C3E52A9FF5BB
:1005A0002AE5299EF529C3E52E9FF52EE52D9EF51A
:1005B0002DD2E843D82090E668E04409F090E65C4C
:1005C000E0443DF0D2AF90E680E020E105D2051294
:1005D0000A0890E680E054F7F0538EF8C203120741
:1005E000FF300105120080C2013003F21207FD50F6
:1005F000EDC203120A8E20001690E682E030E70476
:10060000E020E1EF90E682E030E604E020E0E41252
:070610000A37120BB080C78E
:0B08F50090E50DE030E402C322D322A6
:1000800090E6B9E0700302013F1470030201BC2442
:10009000FE700302023F24FB700302013914700357
:1000A00002013314700302012714700302012D248E
:1000B0000560030202A3120BB240030202AF90E6F6
:1000C000BBE024FE602714603824FD601114602713
:1000D00024067050E52390E6B3F0E524803C120836
:1000E000F5503EE52B90E6B3F0E52C802DE525900C
:1000F000E6B3F0E5268023E52790E6B3F0E5288017
:100100001990E6BAE0FF120A63AA06A9077B01EA82
:10011000494B600DEE90E6B3F0EF90E6B4F00202CA
:10012000AF02029E02029E120B6C0202AF120B9CE7
:100130000202AF120B940202AF120B5A0202AF126C
:100140000BB440030202AF90E6B8E0247F601514C0
:10015000601924027063A200E43325E0FFA202E4E8
:10016000334F8041E490E740F0803F90E6BCE0549C
:100170007EFF7E00E0D394807C0040047D018002FD
:100180007D00EC4EFEED4F248AF582740B3EF58324
:10019000E493FF3395E0FEEF24A1FFEE34E68F8277
:1001A000F583E0540190E740F0E4A3F090E68AF094
:1001B00090E68B7402F00202AF02029E120BB64070
:1001C000030202AF90E6B8E024FE6016240260034A
:1001D0000202AF90E6BAE0B40105C2000202AF022B
:1001E000029E90E6BAE0705590E6BCE0547EFF7E39
:1001F00000E0D394807C0040047D0180027D00EC0F
:100200004EFEED4F248AF582740B3EF583E493FF96
:100210003395E0FEEF24A1FFEE34E68F82F583E014
:1002200054FEF090E6BCE05480131313541FFFE01B
:10023000540F2F90E683F0E04420F08072805F122C
:100240000BB8506B90E6B8E024FE60192402704EA3
:1002500090E6BAE0B40104D200805490E6BAE064BB
:1002600002604C803990E6BCE0547EFF7E00E0D313
:1002700094807C0040047D0180027D00EC4EFEED08
:100280004F248AF582740B3EF583E493FF3395E0A7
:10029000FEEF24A1FFEE34E68F82F583800D90E619
:1002A000A080081202B7500790E6A0E04401F09049
:0602B000E6A0E04480F02E
:0102B6002225
:03003300020BAC11
:040BAC0053D8EF32F9
:100A370090E682E030E004E020E60B90E682E030CA
:100A4700E119E030E71590E680E04401F07F147E7D
:0C0A57000012077F90E680E054FEF022C1
:100A080030050990E680E0440AF0800790E680E02F
:100A18004408F07FDC7E0512077F90E65D74FFF0E6
:0F0A280090E65FF05391EF90E680E054F7F022F4
:020A6300A907E1
:100A6500AE2DAF2E8F828E83A3E064037017AD0188
:100A750019ED7001228F828E83E07C002FFDEC3E04
:080A8500FEAF0580DFE4FEFF77
:010A8D002246
:100A8E0090E682E044C0F090E681F04387010000DA
:040A9E000000002232
:10077F008E1C8F1D90E600E054187012E51D2401A9
:10078F00FFE4351CC313F51CEF13F51D801590E620
:10079F0000E05418FFBF100BE51D25E0F51DE51C0B
:1007AF0033F51CE51D151DAE1C7002151C4E6005A2
:0607BF00120AA280EE22E6
:100AA2007400F58690FDA57C05A3E582458370F967
:010AB2002221
:100B4700D200E490E670F090E67AE054FEF0C2043A
:030B5700020BA4EA
:0107FF0022D7
:0207FD00D32205
:020BB000D3224E
:020BB200D3224C
:080B940090E6BAE0F51FD32240
:100B5A0090E740E51FF0E490E68AF090E68B04F017
:020B6A00D32294
:080B9C0090E6BAE0F51ED32239
:100B6C0090E740E51EF0E490E68AF090E68B04F006
:020B7C00D32282
:020BB400D3224A
:020BB600D32248
:020BB800D32246
:1002B70090E6B9E024DE60721470030203F0248034
:1002C70060471460030204AE90E6B8E06440701C17
:1002D70090E6BAE024FF90E67AE050084401F0D2B5
:1002E700040204AE54FEF0C2040204AE90E6B8E085
:1002F70064C060030204AE90E6A0E020E1F9A20426
:10030700E43390E740F002043990E6B8E0644060D7
:10031700030204AE90E6A0E04480F07FE87E03127B
:10032700077FD205120A080204AE90E6BAE0F51A72
:1003370090E6BFE0FE90E6BEE0FDEEF518EDF5199C
:1003470090E6B8E064C07058E519451870030204D8
:10035700AE90E6A0E020E1F9C3E5199440E51894D2
:1003670000500585191B8003751B407F4090E740AF
:10037700E4F0A3DFFC7AE77B40AD1BAF1A120AB3A8
:10038700E490E68AF000000090E68BE51BF00000A1
:1003970000FFC3E5199FF519E5189400F51880A823
:1003A70090E6B8E0644060030204AEE519451870B2
:1003B700030204AEE490E68AF000000090E68BF0BA
:1003C70000000090E6A0E020E1F990E68BE0F51B45
:1003D7007AE77B40FDAF1A120ACFC3E519951BF5E3
:1003E70019E5189400F51880C290E6BAE0FF90E688
:1003F700BCE0FE90E6B8E064C0704990E6A0E0205B
:10040700E1F9BF2416EE700890E740E5B2F08022CC
:10041700BE011F90E740E5B3F08017BF2514EE70CB
:100427000890E740E580F08009BE010690E740E5C7
:1004370090F0E490E68AF000000090E68B04F0006C
:100447000000806390E6B8E06440705B90E68AF055
:1004570000000090E68BF000000090E6A0E020E1AD
:10046700F9BF2418EE700890E740E0F5B28038EE47
:100477006401703390E740E0F5B3802BEF6425709B
:1004870026EE7011E5B2F45580FF90E740E055B2D3
:100497004FF5808012BE010FE5B3F45590FF90E74A
:0804A70040E055B34FF590C38E
:0104AF00222A
:100AEB00C0E0C083C082D2015391EF90E65D7401E8
:080AFB00F0D082D083D0E0327C
:100B1B00C0E0C083C0825391EF90E65D7404F0D0C7
:060B2B0082D083D0E0320D
:100B3100C0E0C083C0825391EF90E65D7402F0D0B3
:060B410082D083D0E032F7
:10096C00C0E0C083C082852925852A2685268285FC
:10097C002583A37402F0852127852228852882856A
:10098C002783A37407F05391EF90E65D7410F0D0B9
:06099C0082D083D0E0329E
:100B0300C0E0C083C082D2035391EF90E65D7408C6
:080B1300F0D082D083D0E03263
:1008B800C0E0C083C08290E680E030E72085212533
:1008C800852226852682852583A37402F08529271B
:1008D800852A28852882852783A37407F05391EFFA
:0D08E80090E65D7420F0D082D083D0E03225
:010BBA003208
:010BBB003207
:010BBC003206
:010BBD003205
:010BBE003204
:010BBF003203
:010BC0003202
:010BC1003201
:010BC2003200
:010BC30032FF
:010BC40032FE
:010BC50032FD
:010BC60032FC
:010BC70032FB
:010BC80032FA
:010BC90032F9
:010BCA0032F8
:010BCB0032F7
:010BCC0032F6
:010BCD0032F5
:010BCE0032F4
:010BCF0032F3
:010BD00032F2
:010BD10032F1
:010BD20032F0
:010BD30032EF
:010BD40032EE
:010BD50032ED
:010BD60032EC
:010BD70032EB
:010BD80032EA
:010BD90032E9
:010BDA0032E8
:010BDB0032E7
:010BDC0032E6
:010BDD0032E5
:03004300020800B0
:03005300020800A0
:10080000020AEB00020B3100020B1B00020B03007B
:1008100002096C000208B800020BBA00020BBB0010
:10082000020BBC00020BBD00020BBE00020BBF009E
:10083000020BC000020BC100020BC200020BC3007E
:10084000020BC400020BBB00020BC500020BC6006A
:10085000020BC700020BC800020BC900020BCA0042
:10086000020BCB00020BBB00020BBB00020BBB0058
:10087000020BCC00020BCD00020BCE00020BCF000E
:10088000020BD000020BD100020BD200020BD300EE
:10089000020BD400020BD500020BD600020BD700CE
:1008A000020BD800020BD900020BDA00020BDB00AE
:0808B000020BDC00020BDD006D
:100900001201000200000040B404041000000102C3
:1009100000010A0600020000004001000902120066
:1009200001010080320904000000FF0000000902FC
:10093000120001010080320904000000FF000000E5
:10094000040309041003430079007000720065007D
:1009500073007300160343007500730074006F008A
:0C0960006D002000490032004300000040
:080BA400E4F534D2E9D2AF22DE
:1007C500AD0790E678E020E6F9C2E990E678E044E6
:1007D50080F0ED25E090E679F090E678E030E0F9FC
:1007E50090E678E04440F090E678E020E6F990E67F
:0807F50078E030E1D6D2E922E0
:1009D600AC0790E678E020E6F9E534702390E678F7
:1009E600E04480F0EC25E090E679F08D2FAF03A986
:1009F600077530018A318932E4F533753401D32223
:020A0600C32209
:1009A200AC0790E678E020E6F9E534702590E67829
:1009B200E04480F0EC25E0440190E679F08D2FAF21
:1009C20003A9077530018A318932E4F5337534039E
:0409D200D322C32247
:03004B0002061793
:10061700C0E0C083C082C085C084C086758600C024
:10062700D075D000C000C001C002C003C006C0071B
:1006370090E678E030E20675340602070190E67826
:10064700E020E10CE5346402600675340702070117
:10065700E53424FE605F14603624FE70030206F260
:1006670024FC70030206FE24086003020701AB3076
:10067700AA31A932AF3305338F8275830012071F62
:1006870090E679F0E533652F7070753405806B90CF
:10069700E679E0AB30AA31A932AE338E827583009A
:1006A70012074C753402E52F6401704E90E678E02E
:1006B7004420F08045E52F24FEB5330790E678E027
:1006C7004420F0E52F14B5330A90E678E04440F073
:1006D70075340090E679E0AB30AA31A932AE338E9B
:1006E7008275830012074C0533800F90E678E0444B
:1006F70040F075340080037534005391DFD007D084
:1007070006D003D002D001D000D0D0D086D084D07C
:0807170085D082D083D0E032CE
:100AB3001209A2E53424FA600E146006240770F3C9
:0C0AC300D322E4F534D322E4F534D3222E
:100ACF001209D6E53424FA600E146006240770F379
:0C0ADF00D322E4F534D322E4F534D32212
:03000000020B7E72
:0C0B7E00787FE4F6D8FD7581340204B0E5
:10071F00BB010CE58229F582E5833AF583E022508F
:10072F0006E92582F8E622BBFE06E92582F8E222D9
:0D073F00E58229F582E5833AF583E49322F3
:10074C00F8BB010DE58229F582E5833AF583E8F0E3
:10075C00225006E92582C8F622BBFE05E92582C88F
:02076C00F22277
:10076E00EB9FF5F0EA9E42F0E99D42F0E89C45F0E1
:01077E002258
:00000001FF
